:100000000C9434000C943E000C943E000C943E0082
:100010000C943E000C943E000C943E000C943E0068
:100020000C943E000C943E000C943E000C943E0058
:100030000C943E000C943E000C9440000C943E0046
:100040000C943E000C943E000C943E000C943E0038
:100050000C943E000C943E000C943E000C943E0028
:100060000C943E000C943E0011241FBECFEFD4E050
:10007000DEBFCDBF0E9450000C94B2000C94000073
:100080001F920F920FB60F92112416BC289902C02E
:10009000289A01C028980F900FBE0F901F901895B6
:1000A000219A109285001092840083EC99E090933D
:1000B000870080938600E0E8F0E08081826880839A
:1000C000E1E8F0E080818A6180838FEA90E090939C
:1000D00089008093880087B187B988B1806388B927
:1000E000209A289888EC87BD16BCEEE6F0E0808167
:1000F0008260808385B5856085BD7894E8E8F0E00E
:10010000359917C0808191818C329140C8F78081E8
:10011000918101968C32914098F783EF91E001979D
:10012000F1F700C000008081918101969183808366
:10013000E7CF3499E5CF808191818734910500F331
:1001400080819181019787349105D0F283EF91E00E
:100150000197F1F700C000008081918101979183A0
:080160008083CECFF894FFCF9D
:00000001FF
